{
  "contractName": "Elections",
  "abi": [
    {
      "constant": true,
      "inputs": [
        {
          "internalType": "uint256",
          "name": "",
          "type": "uint256"
        }
      ],
      "name": "candidates",
      "outputs": [
        {
          "internalType": "uint256",
          "name": "id",
          "type": "uint256"
        },
        {
          "internalType": "uint256",
          "name": "votecount",
          "type": "uint256"
        },
        {
          "internalType": "string",
          "name": "name",
          "type": "string"
        }
      ],
      "payable": false,
      "stateMutability": "view",
      "type": "function"
    },
    {
      "constant": false,
      "inputs": [],
      "name": "Election",
      "outputs": [],
      "payable": false,
      "stateMutability": "nonpayable",
      "type": "function"
    }
  ],
  "bytecode": "0x608060405234801561001057600080fd5b506101f3806100206000396000f3fe608060405234801561001057600080fd5b50600436106100365760003560e01c80631d6c263c1461003b5780633477ee2e14610045575b600080fd5b6100436100fa565b005b6100716004803603602081101561005b57600080fd5b81019080803590602001909291905050506100fc565b6040518084815260200183815260200180602001828103825283818151815260200191508051906020019080838360005b838110156100bd5780820151818401526020810190506100a2565b50505050905090810190601f1680156100ea5780820380516001836020036101000a031916815260200191505b5094505050505060405180910390f35b565b6000602052806000526040600020600091509050806000015490806001015490806002018054600181600116156101000203166002900480601f0160208091040260200160405190810160405280929190818152602001828054600181600116156101000203166002900480156101b45780601f10610189576101008083540402835291602001916101b4565b820191906000526020600020905b81548152906001019060200180831161019757829003601f168201915b505050505090508356fea265627a7a72315820ff2a28526ff874c73129bccaa87f969db622b1b5df0a9df7d95d0aa9f7cb3daf64736f6c63430005100032",
  "source": "// SPDX-License-Identifier: MIT\r\npragma solidity >=0.4.0 <0.9.0;\r\n\r\ncontract Elections\r\n{\r\n\tstruct candidate\r\n\t{\r\n\t\tuint id;\r\n\t\tuint votecount;\r\n\t\tstring  name;\r\n\t}\r\n\t\r\n\r\n\tmapping(uint => candidate) public candidates;\r\n\tfunction Election () public\r\n\t{\r\n\t\r\n\t}\r\n\r\n\r\n\r\n}",
  "sourcePath": "C:\\Users\\long play computers\\Desktop\\BlockElection\\ps\\contracts\\Elections.sol",
  "compiler": {
    "name": "solc",
    "version": "0.5.16+commit.9c3226ce.Emscripten.clang"
  },
  "schemaVersion": "3.4.7",
  "updatedAt": "2022-06-10T18:56:16.445Z",
  "devdoc": {
    "methods": {}
  },
  "userdoc": {
    "methods": {}
  }
}